:030000000203995F
:10000300C0E0C0F0C0D0C000C001E5338535F0A426
:10001300F8A9F0E5348535F0A429F9E435F0FAE5DB
:10002300338536F0A429F989348833D001D000D040
:10003300D0D0F0D0E022C0E0C0D0E5332535F53391
:10004300E5343536F534D0D0D0E022C0E0C0D0C09E
:1000530000E4F530F531F5327810E534A2E7E53305
:1000630033F533E53433F534E5303530D4F530E565
:10007300313531D4F531E5323532D4F532D8DBD0F0
:1000830000D0D0D0E0220000000D001A0027003479
:100093000041004E005B006800740081008E009BED
:1000A30000A800B500C200CF00DC00E900F60103A0
:1000B3000110011D012A013701440150015D016A4C
:1000C300017701840191019E01AB01B801C501D201
:1000D30001DF01EC01F9020602130220022C0239AE
:1000E300024602530260026D027A0287029402A161
:1000F30002AE02BB02C802D502E202EF02FC030811
:1001030003150322032F033C0349035603630370C0
:10011300037D038A039703A403B103BE03CB03D870
:1001230003E403F103FE040B041804250432043F23
:10013300044C0459046604730480048D049A04A7D0
:1001430004B404C004CD04DA04E704F40501050E85
:10015300051B052805350542054F055C0569057630
:1001630005830590059C05A905B605C305D005DDE6
:1001730005EA05F706040611061E062B0638064592
:100183000652065F066C067806850692069F06AC45
:1001930006B906C606D306E006ED06FA07070714F6
:1001A3000721072E073B074807540761076E077BA4
:1001B3000788079507A207AF07BC07C907D607E358
:1001C30007F007FD080A081708240830083D084A05
:1001D300085708640871087E088B089808A508B2B8
:1001E30008BF08CC08D908E608F30900090C091967
:1001F300092609330940094D095A09670974098118
:10020300098E099B09A809B509C209CF09DC09E8C8
:1002130009F50A020A0F0A1C0A290A360A430A5078
:100223000A5D0A6A0A770A840A910A9E0AAB0AB827
:100233000AC40AD10ADE0AEB0AF80B050B120B1FDC
:100243000B2C0B390B460B530B600B6D0B7A0B8787
:100253000B940BA00BAD0BBA0BC70BD40BE10BEE3E
:100263000BFB0C080C150C220C2F0C3C0C490C56E8
:100273000C630C700C7C0C890C960CA30CB00CBD9D
:060283000CCA0CD70CE4CC
:10028900C0F9A4B0999282F880908883C6A186FFAC
:10029900303132333435363738398883C6A186FF51
:1002A900790A786FD8FED9FA229000897535021239
:1002B9000003858336858235120039853483853379
:1002C90082E493F534A3E493F53322900289E5306F
:1002D900540F93F591E530C4540F93F592E53154D9
:1002E9000F93F593E531C4540F93F5942212032922
:1002F900900299E531C4540F93120386742E1203A8
:1003090086E531540F93120386E530C4540F9312D6
:100319000386E530540F931203867456120386221E
:100329007456120386744F120386744C1203867432
:100339005412038674411203867447120386744566
:10034900120386743A1203867420120386227401FA
:10035900120373792812036222120368D9FB2278E7
:1003690095000000000000D8F822F5D9C2DA000093
:10037900D2D9000000000000C2D9020368F5D9D221
:10038900DA0000D2D9000000000000C2D9020368D7
:1003990075817F75E800759500759E0075F8007583
:1003A9009DFF759C00D2DBC2D912036875DAFFC2C2
:1003B900D8740C120373743812037375B000D2A089
:1003C900D2B71202A930A002C2B7D2B61202A9301E
:1003D900A002C2B6D2B51202A930A002C2B5D2B4E7
:1003E9001202A930A002C2B4D2B31202A930A002EB
:1003F900C2B3D2B21202A930A002C2B2D2B1120261
:10040900A930A002C2B1D2B01202A930A002C2B072
:1004190085B0E8AFB01202A974801203738F3375E7
:100429003400E4EF1202B212004E1202F675B00067
:10043900D2A2D2B71202A930A202C2B7D2B6120210
:10044900A930A202C2B6D2B51202A930A202C2B51F
:10045900D2B41202A930A202C2B4D2B31202A93094
:10046900A202C2B3D2B21202A930A202C2B2D2B15E
:100479001202A930A202C2B1D2B01202A930A2025C
:10048900C2B085B0F8AEB01202A974C01203738E5F
:1004990033753400E4EE1202B212004E1202F60273
:0204A90003C48A
:00000001FF
