:1000000002011AC0F9A4B0999282F88090FFC0E072
:10001000C0D0C000E4FBFCFDFE75F018E9A2E7E8E3
:1000200033F8E933F9EA33FAEB3BD4FBEC3CD4FC8C
:10003000ED3DD4FDEE3ED4FED5F0E1D000D0D0D0E1
:10004000E022900003EB540F93F591EBC4540F930F
:10005000F592EC540F93F593ECC4540F93F594ED93
:10006000540F93F58EEDC4540F93F58FEE540F9308
:10007000F596EEC4540F93F59722EE54F0C47057E2
:10008000EE540F44A0FEEE540F704CEE54F0440AB0
:10009000FEED54F0C47040ED540F44A0FDED540F3C
:1000A0007035ED54F0440AFDEC54F0C47029EC5462
:1000B0000F44A0FCEC540F701EEC54F0440AFCEB0F
:1000C00054F0C47012EB540F44A0FBEB540F7007B4
:1000D000EB54F0440AFB2222E82BF8E93CF9EA3D14
:1000E000FA227BFF7CFF7D00780079007A00EFFE2A
:1000F00070012211D81EEE70FA227F007AB079FAD0
:1001000078FAD8FE308D03C28D0FD9F4DAF022C20E
:100110008C74F055894405F5892275817F75E80056
:10012000759500759E0075F800D2B412010FC28C4F
:10013000758A00758C00D28C1200FAC28C11E2AB69
:0F0140008AAC8C7D0011D8110E117A114280DA31
:00000001FF
