:0300000002034BAD
:10000300C0E0C0D0C000E4F534F535F5367810E52E
:1000130031A2E7E53033F530E53133F531E53435F9
:1000230034D4F534E5353535D4F535E5363536D4C0
:10003300F536D8DBD000D0D0D0E02213C0D030E7E3
:100043000224D030E30224FDD0D022C0E0C0D0C0CF
:1000530000C034C035C0367810C3E53612003EF513
:1000630036E53512003EF535E53412003EF534E54C
:100073003113F531E53013F530D8DED036D035D035
:1000830034D000D0D0D0E022C0E0C0D0E53025325B
:10009300F530E5313533F531D0D0D0E022C0E0C0C2
:1000A300D0C3E5309532F530E5319533F531D0D015
:1000B300D0E022C0E0C0D0C3E5309532E5319533BE
:1000C3009200D0D0D0E022C0E0C0D0C3E53295305A
:1000D300E53395319200D0D0D0E022C0E0C0D0C249
:1000E30000C3E53295307008E53395317002D200D4
:1000F300D0D0D0E0221200DE2000030200CA221278
:1001030000DE2000030200B622C0E0C0F0C0D0C071
:1001130000C001E5308532F0A4F8A9F0E53185325D
:10012300F0A429F9E435F0FAE5308533F0A429F990
:1001330089318830D001D000D0D0D0F0D0E022C0B7
:10014300E0C0F0C0D0C000C001C002C00378807A14
:10015300087B00EB48FBF5F0A4C39530F9E5F09577
:100163003149600D50028004E8F45BFBE803F8DAE0
:10017300E28B30753100D003D002D001D000D0D053
:10018300D0F0D0E022C0E0C0D0C000C001C0027AED
:1001930010E4F8F9C3E53033F530E53133F531E8F0
:1001A30033F8E933F9C3E89532E99533400BE89521
:1001B30032F8E99533F9433001DAD9D002D001D0CE
:1001C30000D0D0D0E02285303285313322E530C5EE
:1001D30032F530E531C533F53122C0F9A4B0999237
:1001E30082F880903031323334353637383988836A
:1001F300C6A186FF9001E7E534C4540F931203357B
:10020300E534540F93120335740D120335740A1237
:100213000335229001DDE534540F93F591E534C4A1
:10022300540F93F592227AB479FA78FAD8FED9FA70
:10023300DAF622439A06539AFEC28222C2CA75C8CC
:100243003075CBFF75CAF7D2CA75985222C0E079D0
:10025300007A08E833F89281D282A280E933F9C2A6
:1002630082DAF0D0E022F5D9C2DA0000D2D9000058
:1002730000000000C2D9020307F5D9D2DA0000D288
:10028300D9000000000000C2D90203077401120262
:1002930069792812029A22120307D9FB2212028FCC
:1002A3007480120269745412027C744512027C74C5
:1002B3004D12027C745012027C744512027C7452FB
:1002C30012027C744112027C745412027C74551223
:1002D300027C745212027C744512027C743A12023C
:1002E3007C742012027C221202A09001E7E534C440
:1002F300540F9312027CE534540F9312027C74431F
:1003030012027C227895000000000000D8F82275C4
:10031300F000C2837801120250E5F0C454F0D2E732
:10032300F8120250E95403FF7855120250E9FED245
:1003330083223099FDC299F599228F318E301200B4
:10034300031201F71202162275817FE4F5F8F5E82E
:10035300F595F59E439A38D28312023612023FD2A4
:10036300DBC2D912030775DAFFC2D8740C12026913
:10037300743812026912031212033D1202EA1202C6
:030383002980F2DC
:00000001FF
