:030000000203BF39
:10000300C0E0C0D0C000E4F534F535F5367810E52E
:1000130031A2E7E53033F530E53133F531E53435F9
:1000230034D4F534E5353535D4F535E5363536D4C0
:10003300F536D8DBD000D0D0D0E02213C0D030E7E3
:100043000224D030E30224FDD0D022C0E0C0D0C0CF
:1000530000C034C035C0367810C3E53612003EF513
:1000630036E53512003EF535E53412003EF534E54C
:100073003113F531E53013F530D8DED036D035D035
:1000830034D000D0D0D0E022C0E0C0D0E53025325B
:10009300F530E5313533F531D0D0D0E022C0E0C0C2
:1000A300D0C3E5309532F530E5319533F531D0D015
:1000B300D0E022C0E0C0D0C3E5309532E5319533BE
:1000C3009200D0D0D0E022C0E0C0D0C3E53295305A
:1000D300E53395319200D0D0D0E022C0E0C0D0C249
:1000E30000C3E53295307008E53395317002D200D4
:1000F300D0D0D0E0221200DE2000030200CA221278
:1001030000DE2000030200B622C0E0C0F0C0D0C071
:1001130000C001E5308532F0A4F8A9F0E53185325D
:10012300F0A429F9E435F0FAE5308533F0A429F990
:1001330089318830D001D000D0D0D0F0D0E022C0B7
:10014300E0C0F0C0D0C000C001C002C00378807A14
:10015300087B00EB48FBF5F0A4C39530F9E5F09577
:100163003149600D50028004E8F45BFBE803F8DAE0
:10017300E28B30753100D003D002D001D000D0D053
:10018300D0F0D0E022C0E0C0D0C000C001C0027AED
:1001930010E4F8F9C3E53033F530E53133F531E8F0
:1001A30033F8E933F9C3E89532E99533400BE89521
:1001B30032F8E99533F9433001DAD9D002D001D0CE
:1001C30000D0D0D0E02285303285313322E530C5EE
:1001D30032F530E531C533F53122C0F9A4B0999237
:1001E30082F880903031323334353637383988836A
:1001F300C6A186FF9001E7E534C4540F931203763A
:10020300E534540F93120376740D120376740A12B5
:100213000376227AB479FA78FAD8FED9FADAF62292
:10022300439A06539AFEC28222C2CA75C83075CB5E
:10023300FF75CAF7D2CA75985222C0E079007A08CE
:10024300E833F89281D282A280E933F9C282DAF0EC
:10025300D0E022F5D9C2DA0000D2D90000000000B4
:1002630000C2D9020348F5D9D2DA0000D2D900007E
:1002730000000000C2D90203487401120256792813
:1002830012028722120348D9FB2212027C748012C5
:10029300025674541202697445120269744D1202B3
:1002A3006974501202697445120269745212026928
:1002B300744112026974541202697455120269740A
:1002C300521202697445120269743A120269742067
:1002D300120269221202EDC3E5348537F095F0402E
:1002E300051202FE80031202F7227591FF7592FF39
:1002F3007593FF227592C075912B227593C07592E9
:100303000E75910E2220F90A30F9FDE5372401D448
:10031300F5379001DDE537540F93F596E537C4546F
:100323000F93F59720E8DE2212028D9001E7E53462
:10033300C4540F93120269E534540F931202697483
:1003430043120269227895000000000000D8F822C9
:1003530075F000C283780112023DE5F0C454F0D277
:10036300E7F812023DE95403FF785512023DE9FE16
:10037300D283223099FDC299F599228F318E30753F
:10038300323E75330012010CAC318F318E30E531C2
:1003930020E729E475323F75330012010CAD318C2F
:1003A300307531008D3275330012008B7532117543
:1003B30033011200A01200031201F72275817FE4BA
:1003C300F5F8F5E8F595F59E439A38D283120223A2
:1003D30012022CD2DBC2D912034875DAFFC2D874D9
:1003E3000C120256743812025630E8031203081234
:1003F30002D712035312037E12032B12021680E953
:00000001FF
