:030000000202D722
:03000B00020039B7
:03002B000200428E
:10002E00C0F9A4B0999282F88090FFB280758CFDD1
:10003E00758A4A32C0D0C0E0C083C082C2CFB281BE
:10004E0020EA0330EA051200F88007120273C2FBA1
:10005E00C2A920E8450530E530B4643E753000E5B0
:10006E00312401D4F531B46031753100E53224010B
:10007E00D4F532B46024753200E5332401D4F5335F
:10008E00B41211B200300003200006759108020070
:10009E00A875910CB4130375330120E94490002E1A
:1000AE003000032000067591080200BD75910CE525
:1000BE0031540F93F593E531C4540F93F594E53213
:1000CE00540F93F58EE532C4540F93F58FE53354E8
:1000DE000F93F596E53320E40274A0C4540F93F504
:1000EE0097D082D083D0E0D0D03220A9051202560C
:1000FE00800312022F200005300107802D20000200
:10010E008028E5338536F0C395F06002801CE53219
:10011E008535F0C395F060028010E5318534F0C36B
:10012E0095F060028004D2FBD2A92290002EE53415
:10013E00540F93F593E534C4540F93F594E5355469
:10014E000F93F58EE535C4540F93F58FE536540FA6
:10015E0093F596E53620E40274A0C4540F93F597F8
:10016E002212013920F91330F9FDE5342401D4F5BA
:10017E0034B460B775340002013920FA1330FAFD39
:10018E00E5352401D4F535B460A175350002013989
:10019E0020FB1630FBFDE5362401D4F5361201BDE9
:1001AE00B4138875360102013920E9B502022EE535
:1001BE0036B41210B201300103200105759108808A
:1001CE000375910C22E533B41210B20030000320F7
:1001DE000005759108800375910C2220E98330E8A3
:1001EE003F20FB1330FBFDE5332401D4F533120120
:1001FE00D3B4130375330120FA1030FAFDE532241F
:10020E0001D4F532B4600375320020F91030F9FDD7
:10021E00E5312401D4F531B460037531000201E9F2
:10022E002212029074571202C474411202C4744B0B
:10023E001202C474451202C474201202C474551200
:10024E0002C474501202C42212029074411202C4EB
:10025E00744C1202C474411202C474521202C47459
:10026E004D1202C42212029074431202C4744C1234
:10027E0002C4744F1202C474431202C4744B1202AD
:10028E00C42274011202B179281202A074801202E3
:10029E00B1221202A6D9FB227895000000000000C0
:1002AE00D8F822F5D9C2DA0000D2D9000000000039
:1002BE0000C2D90202A6F5D9D2DA0000D2D90000C6
:1002CE0000000000C2D90202A675817F75E8007594
:1002DE009500759E0075F800759A03D28075890198
:1002EE00C28CC28D758CFD758A4AD28CC2A975C816
:1002FE0000C2CAC2CF75CB9375CA7FD2CAD2ADD255
:10030E00AFD2DBC2D91202A675DAFFC2D8740C12B4
:10031E0002B174381202B1120273753100753200D7
:10032E00753312C200C20175340075350075361270
:05033E001201E980FB43
:00000001FF
