:030000000202D920
:03000B00020039B7
:03002B000200428E
:10002E00C0F9A4B0999282F88090FFB280758CFDD1
:10003E00758A4A32C0D0C0E0C083C082C2CFB281BE
:10004E0020EA0330EA051200F88007120275C2FB9F
:10005E00C2A920E8450530E530B4643E753000E5B0
:10006E00312401D4F531B46031753100E53224010B
:10007E00D4F532B46024753200E5332401D4F5335F
:10008E00B41211B200300003200006759108020070
:10009E00A875910CB4130375330120E94490002E1A
:1000AE003000032000067591080200BD75910CE525
:1000BE0031540F93F593E531C4540F93F594E53213
:1000CE00540F93F58EE532C4540F93F58FE53354E8
:1000DE000F93F596E53320E40274A0C4540F93F504
:1000EE0097D082D083D0E0D0D03220A9051202580A
:1000FE00800312023120000630010902013A20016C
:10010E000302013AE5338536F0C395F06002801C98
:10011E00E5328535F0C395F060028010E531853407
:10012E00F0C395F060028004D2FBD2A92290002E7B
:10013E00E534540F93F593E534C4540F93F594E5D9
:10014E0035540F93F58EE535C4540F93F58FE53680
:10015E00540F93F596E53620E40274A0C4540F9321
:10016E00F5972212013B20F91330F9FDE5342401F5
:10017E00D4F534B460B775340002013B20FA133065
:10018E00FAFDE5352401D4F535B460A175350002CC
:10019E00013B20FB1630FBFDE5362401D4F536126B
:1001AE0001BFB4138875360102013B20E9B5020286
:1001BE0030E536B41210B2013001032001057591FD
:1001CE0008800375910C22E533B41210B200300092
:1001DE0003200005759108800375910C2220E98398
:1001EE0030E83F20FB1330FBFDE5332401D4F5331B
:1001FE001201D5B4130375330120FA1030FAFDE560
:10020E00322401D4F532B4600375320020F9103077
:10021E00F9FDE5312401D4F531B4600375310002E6
:10022E0001EB2212029274571202C674411202C6D8
:10023E00744B1202C674451202C674201202C674A2
:10024E00551202C674501202C62212029274411244
:10025E0002C6744C1202C674411202C674521202C5
:10026E00C6744D1202C62212029274431202C67452
:10027E004C1202C6744F1202C674431202C6744B5D
:10028E001202C62274011202B379281202A27480DD
:10029E001202B3221202A8D9FB22789500000000A8
:1002AE000000D8F822F5D9C2DA0000D2D900000039
:1002BE00000000C2D90202A8F5D9D2DA0000D2D9C4
:1002CE00000000000000C2D90202A875817F75E807
:1002DE0000759500759E0075F800759A03D28075AD
:1002EE008901C28CC28D758CFD758A4AD28CC2A9C9
:1002FE0075C800C2CAC2CF75CB9375CA7FD2CAD297
:10030E00ADD2AFD2DBC2D91202A875DAFFC2D87451
:10031E000C1202B374381202B312027575310075E5
:10032E003200753312C200C2017534007535007586
:07033E0036121201EB80FBF7
:00000001FF
