:030000000201B941
:03000B00020019D7
:10000E00C0F9A4B0999282F88090FF758C93758A8E
:10001E0081C0D0C0E0C083C08220E84E20EA033009
:10002E00EA031200D10530E530B4643E753000E5C8
:10003E00312401D4F531B46031753100E53224013B
:10004E00D4F532B46024753200E5332401D4F5338F
:10005E00B41211B2003000032000067591080200A0
:10006E007875910CB4130375330120E94490000E9A
:10007E0030000320000675910802008D75910CE585
:10008E0031540F93F593E531C4540F93F594E53243
:10009E00540F93F58EE532C4540F93F58FE5335418
:1000AE000F93F596E53320E40274A0C4540F93F534
:1000BE0097D082D083D0E0D0D032B280758C937539
:1000CE008A8132E5338536F095F060028029E5327B
:1000DE008535F095F0C36002801DE5318534F095CD
:1000EE00F0C3600280112000028005200107800706
:1000FE003001028002D2FB2290000EE534540F93A1
:10010E00F593E534C4540F93F594E535540F93F5F8
:10011E008EE535C4540F93F58FE536540F93F5964F
:10012E00E53620E40274A0C4540F93F59722020121
:10013E003F20F91330F9FDE5342401D4F534B460D1
:10014E00B775340002010620FA1330FAFDE53524A6
:10015E0001D4F535B460A175350002010620FB16F9
:10016E0030FBFDE5362401D4F53612018AB413882E
:10017E0075360102010620E9B80201F7E536B41220
:10018E0010B2013001032001057591088019759197
:10019E000C22E533B41210B20030000320000575B6
:1001AE009108800375910C2202013F75817F75E8DD
:1001BE0000759500759E0075F800758901C28CC298
:1001CE008D758C93758A81D28CD2A9D2AF75315927
:1001DE00753259753304753400753500753612C293
:1001EE0000C20175910820E9BF30E8FA20FB1330F8
:1001FE00FBFDE5332401D4F5331201A0B4130375CE
:10020E00330120FA1030FAFDE5322401D4F532B470
:10021E00600375320020F91030F9FDE5312401D468
:0B022E00F531B460037531000201F4EB
:00000001FF
