:030000000202E811
:03000B00020039B7
:03002B000200517F
:10002E00C0F9A4B0999282F88090FFE530943240E6
:10003E0006C28075E80032B280758DFD758B4A75EB
:10004E00E80132C0D0C0E0C083C082C2CFB28120EE
:10005E00EA0330EA051201078007120284C2FBC2CE
:10006E00A920E8450530E530B4643E753000E53131
:10007E002401D4F531B46031753100E5322401D458
:10008E00F532B46024753200E5332401D4F533B46F
:10009E001211B2003000032000067591080200B75D
:1000AE0075910CB4130375330120E94490002E3082
:1000BE0000032000067591080200CC75910CE53105
:1000CE00540F93F593E531C4540F93F594E53254E0
:1000DE000F93F58EE532C4540F93F58FE533540F1D
:1000EE0093F596E53320E40274A0C4540F93F5976C
:1000FE00D082D083D0E0D0D03220A9051202678002
:10010E0003120240200006300109020149200103BA
:10011E00020149E5338536F0C395F06002801CE597
:10012E00328535F0C395F060028010E5318534F0EC
:10013E00C395F060028004D2FBD2A92290002EE576
:10014E0034540F93F593E534C4540F93F594E53579
:10015E00540F93F58EE535C4540F93F58FE5365451
:10016E000F93F596E53620E40274A0C4540F93F570
:10017E00972212014A20F91330F9FDE5342401D4F7
:10018E00F534B460B775340002014A20FA1330FA20
:10019E00FDE5352401D4F535B460A17535000201B5
:1001AE004A20FB1630FBFDE5362401D4F53612014C
:1001BE00CEB4138875360102014A20E9B502023F1A
:1001CE00E536B41210B20130010320010575910815
:1001DE00800375910C22E533B41210B20030000387
:1001EE00200005759108800375910C2220E983305B
:1001FE00E83F20FB1330FBFDE5332401D4F5331229
:10020E0001E4B4130375330120FA1030FAFDE53220
:10021E002401D4F532B4600375320020F91030F9A0
:10022E00FDE5312401D4F531B460037531000201CE
:10023E00FA221202A174571202D574411202D57419
:10024E004B1202D574451202D574201202D5745584
:10025E001202D574501202D5221202A1744112025A
:10026E00D5744C1202D574411202D574521202D5B5
:10027E00744D1202D5221202A174431202D5744C8F
:10028E001202D5744F1202D574431202D5744B125A
:10029E0002D52274011202C279281202B1748012A0
:1002AE0002C2221202B7D9FB22789500000000008C
:1002BE0000D8F822F5D9C2DA0000D2D90000000029
:1002CE000000C2D90202B7F5D9D2DA0000D2D900A5
:1002DE000000000000C2D90202B775817F75E800E8
:1002EE00759500759E0075F800759A03D280758914
:1002FE0001C28CC28D758CFD758A4AD28CC2A975CD
:10030E008910C28EC28F758DFD758B4AD28EC2AB8F
:10031E0075C800C2CAC2CF75CB9375CA7FD2CAD276
:10032E00ADD2AFD2DBC2D91202B775DAFFC2D87422
:10033E000C1202C274381202C21202847531007598
:10034E003200753312C200C2017534007535007566
:07035E0036121201FA80FBC8
:00000001FF
