:030000000202D623
:03000B00020039B7
:03002B000200428E
:10002E00C0F9A4B0999282F88090FFB280758CFDD1
:10003E00758A4A32C0D0C0E0C083C082C2CFB281BE
:10004E0020EA0330EA051200F88007120272C2FBA2
:10005E00C2A920E8450530E530B4643E753000E5B0
:10006E00312401D4F531B46031753100E53224010B
:10007E00D4F532B46024753200E5332401D4F5335F
:10008E00B41211B200300003200006759108020070
:10009E00A875910CB4130375330120E94490002E1A
:1000AE003000032000067591080200BD75910CE525
:1000BE0031540F93F593E531C4540F93F594E53213
:1000CE00540F93F58EE532C4540F93F58FE53354E8
:1000DE000F93F596E53320E40274A0C4540F93F504
:1000EE0097D082D083D0E0D0D03220A9051202550D
:1000FE00800312022EE5008501F0C395F0600280A8
:10010E0028E5338536F0C395F06002801CE5328514
:10011E0035F0C395F060028010E5318534F0C3955B
:10012E00F060028004D2FBD2A92290002EE5345456
:10013E000F93F593E534C4540F93F594E535540FAE
:10014E0093F58EE535C4540F93F58FE536540F9322
:10015E00F596E53620E40274A0C4540F93F5972269
:10016E0012013820F91330F9FDE5342401D4F534A9
:10017E00B460B775340002013820FA1330FAFDE589
:10018E00352401D4F535B460A1753500020138204F
:10019E00FB1630FBFDE5362401D4F5361201BCB456
:1001AE00138875360102013820E9B502022DE536B5
:1001BE00B41210B2013001032001057591088003BD
:1001CE0075910C22E533B41210B2003000032000FA
:1001DE0005759108800375910C2220E98330E83F64
:1001EE0020FB1330FBFDE5332401D4F5331201D28D
:1001FE00B4130375330120FA1030FAFDE5322401F1
:10020E00D4F532B4600375320020F91030F9FDE5F3
:10021E00312401D4F531B460037531000201E822B6
:10022E0012028F74571202C374411202C3744B121E
:10023E0002C374451202C374201202C37455120213
:10024E00C374501202C32212028F74411202C3747D
:10025E004C1202C374411202C374521202C3744D83
:10026E001202C32212028F74431202C3744C120282
:10027E00C3744F1202C374431202C3744B1202C3EF
:10028E002274011202B0792812029F74801202B0F9
:10029E00221202A5D9FB227895000000000000D89A
:1002AE00F822F5D9C2DA0000D2D900000000000011
:1002BE00C2D90202A5F5D9D2DA0000D2D9000000C7
:1002CE00000000C2D90202A575817F75E800759500
:1002DE0000759E0075F800759A03D280758901C26B
:1002EE008CC28D758CFD758A4AD28CC2A975C800D8
:1002FE00C2CAC2CF75CB9375CA7FD2CAD2ADD2AFA6
:10030E00D2DBC2D91202A575DAFFC2D8740C120262
:10031E00B074381202B01202727531007532007567
:10032E003312C200C20175340075350075361212D3
:04033E0001E880FB57
:00000001FF
