:03000000020122D8
:03000B00020019D7
:10000E00C0F9A4B0999282F88090FF758C93758A8E
:10001E0081C0D0C0E0C083C08220E8450530E53005
:10002E00B4643E753000E5312401D4F531B460314D
:10003E00753100E5322401D4F532B46024753200F6
:10004E00E5332401D4F533B41211B200300003208D
:10005E00000675910802006F75910CB41303753389
:10006E000120E93590000EE531540F93F593E531FB
:10007E00C4540F93F594E532540F93F58EE532C4C4
:10008E00540F93F58FE533540F93F596E53320E433
:10009E000274A0C4540F93F597D082D083D0E0D0D1
:1000AE00D032758901C28CC28D758C93758A81D2BE
:1000BE008CD2A92290000EE534540F93F593E534BB
:1000CE00C4540F93F594E535540F93F58EE535C46E
:1000DE00540F93F58FE536540F93F596E536C454C9
:1000EE000F93F59702010BE533B41210B2003000F6
:1000FE0003200005759108800375910C22D2FAE554
:10010E00342401D4F534B460AB75340020E9EEC26A
:10011E00FA02014775817F75E800759500759E009E
:10012E0075F800753100753200753312C200759185
:10013E00081200B0D2AF20E9C430E8FA20FB133029
:10014E00FBFDE5332401D4F5331200F5B41303752A
:10015E00330120FA1030FAFDE5322401D4F532B421
:10016E00600375320120F91030F9FDE5312401D418
:0B017E00F531B460037531010201444B
:00000001FF
