:0300000002019C5E
:03000B00020019D7
:10000E00C0F9A4B0999282F88090FF758C93758A8E
:10001E0081C0D0C0E0C083C08220E8480530E53002
:10002E00B464417530001200D4E5312401D4F531A9
:10003E00B46031753100E5322401D4F532B4602458
:10004E00753200E5332401D4F533B41211B2003009
:10005E00000320000675910802007275910CB4130E
:10006E000375330120E94490000E30000320000692
:10007E0075910802008775910CE531540F93F59335
:10008E00E531C4540F93F594E532540F93F58EE594
:10009E0032C4540F93F58FE533540F93F596E53331
:1000AE0020E40274A0C4540F93F597D082D083D06D
:1000BE00E0D0D032758901C28CC28D758C93758A51
:1000CE0081D28CD2A92222E5318534F095F0C3601D
:1000DE00030200D4D2FB80EE90000EE534540F9351
:1000EE00F593E534C4540F93F594E535540F93F519
:1000FE008EE535C4540F93F58FE536540F93F59670
:10010E00E536C4540F93F59702011920F91330F90F
:10011E00FDE5342401D4F534B460BD75340002001D
:10012E00E620FA1330FAFDE5352401D4F535B46036
:10013E00A77535000200E620FB1630FBFDE53624E0
:10014E0001D4F536120164B4138E7536010200E641
:10015E0020E9B80201CCE536B41210B20130010329
:10016E00200105759108801975910C22E533B412A2
:10017E0010B20030000320000575910880037591C0
:10018E000C22753400753500753612020119758111
:10019E007F75E800759500759E0075F80075310144
:1001AE00753200753312753400753500753612C20E
:1001BE0000C2017591081200C2D2AF20E9C430E826
:1001CE00FA20FB1330FBFDE5332401D4F533120185
:1001DE007AB4130375330120FA1030FAFDE5322498
:1001EE0001D4F532B4600375320120F91030F9FDF7
:1001FE00E5312401D4F531B460037531010201C932
:00000001FF
