:030000000201B149
:03000B00020019D7
:10000E00C0F9A4B0999282F88090FF758C93758A8E
:10001E0081C0D0C0E0C083C08220E8480530E53002
:10002E00B464417530001200D4E5312401D4F531A9
:10003E00B46031753100E5322401D4F532B4602458
:10004E00753200E5332401D4F533B41211B2003009
:10005E00000320000675910802007275910CB4130E
:10006E000375330120E94490000E30000320000692
:10007E0075910802008775910CE531540F93F59335
:10008E00E531C4540F93F594E532540F93F58EE594
:10009E0032C4540F93F58FE533540F93F596E53331
:1000AE0020E40274A0C4540F93F597D082D083D06D
:1000BE00E0D0D032758901C28CC28D758C93758A51
:1000CE0081D28CD2A922E5338536F095F0600122DB
:1000DE00E5328535F095F0C3600280F3E531853465
:1000EE00F095F0C360030200DDD2FB80E290000EBB
:1000FE00E534540F93F593E534C4540F93F594E51A
:10010E0035540F93F58EE535C4540F93F58FE536C0
:10011E00540F93F596E536C4540F93F59702012EBE
:10012E0020F91330F9FDE5342401D4F534B460BD63
:10013E007534000200FB20FA1330FAFDE535240178
:10014E00D4F535B460A77535000200FB20FB1630E0
:10015E00FBFDE5362401D4F536120179B4138E7504
:10016E0036010200FB20E9B80201E1E536B41210B7
:10017E00B201300103200105759108801975910CAB
:10018E0022E533B41210B200300003200005759141
:10019E0008800375910C2275340075350075361282
:1001AE0002012E75817F75E800759500759E0075AC
:1001BE00F8007531017532007533127534007535DE
:1001CE0000753612C200C2017591081200C2D2AF7C
:1001DE0020E9C430E8FA20FB1330FBFDE53324019F
:1001EE00D4F53312018FB4130375330120FA103096
:1001FE00FAFDE5322401D4F532B4600375320120E4
:10020E00F91030F9FDE5312401D4F531B4600375F0
:05021E0031010201DEC8
:00000001FF
