:0300000002018B6F
:03000B00020019D7
:10000E00C0F9A4B0999282F88090FF758C93758A8E
:10001E0081C0D0C0E0C083C08220E8450530E53005
:10002E00B4643E753000E5312401D4F531B460314D
:10003E00753100E5322401D4F532B46024753200F6
:10004E00E5332401D4F533B41211B200300003208D
:10005E00000675910802006F75910CB41303753389
:10006E000120E94490000E3000032000067591082F
:10007E0002008475910CE531540F93F593E531C46C
:10008E00540F93F594E532540F93F58EE532C45424
:10009E000F93F58FE533540F93F596E53320E40275
:1000AE0074A0C4540F93F597D082D083D0E0D0D0F3
:1000BE0032758901C28CC28D758C93758A81D28CF2
:1000CE00D2A92290000EE534540F93F593E534C473
:1000DE00540F93F594E535540F93F58EE535C454CE
:1000EE000F93F58FE536540F93F596E536C4540FFE
:1000FE0093F59702010420F917D2FA30F9FDE53491
:10010E002401D4F534B460BB753400C2FA0200D1B8
:10011E0020FA1330FAFDE5352401D4F535B460A389
:10012E007535000200D120FB1630FBFDE5362401AB
:10013E00D4F536120153B4138A7536010200D1205C
:10014E00E9B40201BBE536B41210B201300103204E
:10015E000105759108801975910C22E533B41210C2
:10016E00B200300003200005759108800375910CD4
:10017E002275340075350075361202010475817FC3
:10018E0075E800759500759E0075F800753100755F
:10019E003200753312753400753500753612C20093
:1001AE00C2017591081200BFD2AF20E9C430E8FA3F
:1001BE0020FB1330FBFDE5332401D4F53312016926
:1001CE00B4130375330120FA1030FAFDE532240121
:1001DE00D4F532B4600375320120F91030F9FDE523
:0F01EE00312401D4F531B460037531010201B839
:00000001FF
