:0300000002015AA0
:03000B00020019D7
:10000E00C0F9A4B0999282F88090FF758C93758A8E
:10001E0081C0D0C0E0C083C08220E8450530E53005
:10002E00B4643E753000E5312401D4F531B460314D
:10003E00753100E5322401D4F532B46024753200F6
:10004E00E5332401D4F533B41211B200300003208D
:10005E00000675910802006F75910CB41303753389
:10006E000120E93590000EE531540F93F593E531FB
:10007E00C4540F93F594E532540F93F58EE532C4C4
:10008E00540F93F58FE533540F93F596E53320E433
:10009E000274A0C4540F93F597D082D083D0E0D0D1
:1000AE00D032758901C28CC28D758C93758A81D2BE
:1000BE008CD2A92290000EE534540F93F593E534BB
:1000CE00C4540F93F594E535540F93F58EE535C46E
:1000DE00540F93F58FE536540F93F596E536C454C9
:1000EE000F93F5970200F520F917D2FA30F9FDE5D6
:1000FE00342401D4F534B460BB753400C2FA020066
:10010E00C220FA1330FAFDE5352401D4F535B4607A
:10011E00A37535000200C220FB1330FBFDE536242B
:10012E0001D4F536B4138D7536010200C220E9B73D
:10013E00020188E533B41210B2003000032000052E
:10014E00759108800375910C220200F575817F75FB
:10015E00E800759500759E0075F8007531007532D2
:10016E0000753312753400753500753612C2007580
:10017E0091081200B0D2AF20E9CF30E8FA20FB137D
:10018E0030FBFDE5332401D4F533120141B41303E2
:10019E0075330120FA1030FAFDE5322401D4F53220
:1001AE00B4600375320120F91030F9FDE5312401F8
:0C01BE00D4F531B46003753101020185F5
:00000001FF
