:0300000002028970
:03000B000201519E
:03002B0002003898
:10002E00C0F9A4B0999282F88090C0D0C0E0C0828E
:10003E00C083C2CFB281E53904F53975330075340A
:10004E0000753512B4644D20E80330E806120266DE
:10005E001201BC753900E5302401D4F530B4603797
:10006E00753000E5312401D4F531B4602A753100C4
:10007E00E5322401D4F532B41211B200300003205F
:10008E0000067591080200A575910CB4130975321E
:10009E00010200A50200DB20EB3330EB0090002EB6
:1000AE00E530540F93F593E530C4540F93F594E572
:1000BE0031540F93F58EE531C4540F93F58FE5321D
:1000CE00540F93F596E532C4540F93F597D083D021
:1000DE0082D0E0D0D03275360075370075381212E6
:1000EE0000F12220EC0720ED2320EBF72230EBF37A
:1000FE0030ECFAE5372401D4B46004756E60E4F593
:10010E003712018B20EC0020ECFD80D730EBD43081
:10011E00EDFAE5382401D4B413037401D4F5381282
:10012E00018B12013B20ED0020EDFD80B6E538B4C9
:10013E001210B2013001032001057591088003757C
:10014E00910C2220EB0330EB0975F80112026612B6
:10015E0000E4B280758CFD758A4A32E53785313000
:10016E00B401F1E538853231B412E9E5008501328A
:10017E00B532E112018522D28130EEFB2290002EA3
:10018E00E536540F93F593E536C4540F93F594E585
:10019E0037540F93F58EE537C4540F93F58FE5382A
:1001AE00540F93F596E538C4540F93F59722753393
:1001BE0000753400753512C2001201CB2220E90AF7
:1001CE0020EA2320E8F712022B2230E8F030E9FA79
:1001DE00E5342401D4B46001E4F53412023520E98B
:1001EE000020E9FD80D730E8D430EAFAE535240165
:1001FE00D4B413037401D4F535120235120215204E
:10020E00EA0020EAFD80B6E535B41210B2003000E7
:10021E0003200005759108800375910C22853330FB
:10022E008534318535322290002EE533540F93F507
:10023E0093E533C4540F93F594E534540F93F58E30
:10024E00E534C4540F93F58FE535540F93F596E5C9
:10025E0035C4540F93F59722759108759340759494
:10026E0040758E40758F407596A47597F9227A5A0F
:10027E0079FA78FAD8FED9FADAF62275817F75E81E
:10028E0000759500759E0075F800759A03D28075FD
:10029E008901C28CC28D758CFD758A4AD28CD2A909
:1002AE0075C800C2CAC2CF75CB9375CA7FD2CAD2E7
:1002BE00AD7591081202667412D475300075310056
:1002CE00F532753600753700F538C200C201753942
:1002DE0000753A3C753C0CD2AFB2E812027C80F944
:00000001FF
