:030000000200DC1F
:03000B000200C62A
:03002B0002003898
:10002E00C0F9A4B0999282F88090C0D0C0E0C0828E
:10003E00C083C2CFB281E53304F533B46471753336
:10004E0000E5302401D4F530B4603402005C753024
:10005E0000E5312401D4F531B4602402006C753111
:10006E0000E5322401D4F532B41314753200B20017
:10007E0030000320000675910802008D75910C90DA
:10008E00002EE530540F93F593E530C4540F93F5DD
:10009E0094E531540F93F58EE531C4540F93F58FDB
:1000AE00E532540F93F58FE532C4540F93F596D085
:1000BE0083D082D0E0D0D032B280758CFD758A4A62
:1000CE00327A5A79FA78FAD8FED9FADAF6227581A6
:1000DE007F75E800759500759E0075F800759A039A
:1000EE00D280758901C28CC28D758CFD758A4AD2FB
:1000FE008CD2A975C800C2CAC2CF75CB9375CA7F00
:10010E00D2CAD2AD759108753000753100753200C6
:0E011E00C200753300D2AFB2E81200CF80F9F4
:00000001FF
