:030000000201B644
:03000B000200E10F
:03002B0002003898
:10002E00C0F9A4B0999282F88090C0D0C0E0C0828E
:10003E00C083C2CFB281E53904F53975330075340A
:10004E0000753512B4645020E80330E806120193AF
:10005E001200EA753900E5302401D4F530B4603A67
:10006E00020071753000E5312401D4F531B4602AF7
:10007E00020081753100E5322401D4F532B412113B
:10008E00B2003000032000067591080200A8759199
:10009E000CB413067532010200D890002EE53054D0
:1000AE000F93F593E530C4540F93F594E531540F47
:1000BE0093F58EE531C4540F93F58FE532540F93BB
:1000CE00F596E532C4540F93F597D083D082D0E0E5
:1000DE00D0D032B280758CFD758A4A3220E90A2062
:1000EE00EA2620E8F712014E2230E8F030E9FAE570
:1000FE00342401D4B46004757160E4F534120162E5
:10010E0020E90020E9FD80D430E8D130EAFAE53567
:10011E002401D4B413037401D4F535120162120113
:10012E003720EA0020EAFD80B3D53C13B200300040
:10013E0003200005759108800375910C753C0C2207
:10014E0085333085343185353222853630853731E9
:10015E008538322290002EE533540F93F593E53314
:10016E00C4540F93F594E534540F93F58EE534C4CF
:10017E00540F93F58FE535540F93F596E535C4542A
:10018E000F93F59722759108759340759440758E6F
:10019E0040758F407596A47597F9227A5A79FA7838
:1001AE00FAD8FED9FADAF62275817F75E8007595D0
:1001BE0000759E0075F800759A03D280758901C28C
:1001CE008CC28D758CFD758A4AD28CD2A975C800E9
:1001DE00C2CAC2CF75CBFF75CAF3D2CAD2AD759162
:1001EE00087412D4753000753100F532C2007539BD
:1001FE0000753A3C753C0CD2AFB2E81201A980F9F9
:00000001FF
