:03000000020104F6
:10000300C0F9A4B0999282F880908883C6A186FF34
:10001300790A786FD8FED9FA22900003E8540F9337
:10002300F591E8C4540F93F592E9540F93F5932295
:1000330075F06484F9E5F075F00A84C445F0F8229C
:1000430075B000D2A0D2B712001330A002C2B7D24B
:10005300B612001330A002C2B6D2B512001330A0FC
:1000630002C2B5D2B412001330A002C2B4D2B3128A
:10007300001330A002C2B3D2B212001330A002C2E6
:10008300B2D2B112001330A002C2B1D2B012001327
:1000930030A002C2B085B0E82275B000D2A275F0DC
:1000A30000D2B712001330A202C2B7D2B6120013A5
:1000B30030A202C2B6D2B512001330A202C2B5D228
:1000C300B412001330A202C2B4D2B312001330A28E
:1000D30002C2B3D2B212001330A202C2B2D2B11220
:1000E300001330A205C2B1120013D2B012001330B4
:1000F300A202C2B085B0F822E5F812003312001C48
:100103002275817F75E800759500759E0075F8006E
:10011300759DFF759C007B0012004312009C12002A
:0A012300131200FB12001302011B6F
:00000001FF
