:030000000204AB4C
:10000300C0E0C0F0C0D0C000C001E5338535F0A426
:10001300F8A9F0E5348535F0A429F9E435F0FAE5DB
:10002300338536F0A429F989348833D001D000D040
:10003300D0D0F0D0E022C0E0C0D0E5332535F53391
:10004300E5343536F534D0D0D0E022C0E0C0D0C09E
:1000530000E4F530F531F5327810E534A2E7E53305
:1000630033F533E53433F534E5303530D4F530E565
:10007300313531D4F531E5323532D4F532D8DBD0F0
:1000830000D0D0D0E0220000000D001A0027003479
:100093000041004E005B006800740081008E009BED
:1000A30000A800B500C200CF00DC00E900F60103A0
:1000B3000110011D012A013701440150015D016A4C
:1000C300017701840191019E01AB01B801C501D201
:1000D30001DF01EC01F9020602130220022C0239AE
:1000E300024602530260026D027A0287029402A161
:1000F30002AE02BB02C802D502E202EF02FC030811
:1001030003150322032F033C0349035603630370C0
:10011300037D038A039703A403B103BE03CB03D870
:1001230003E403F103FE040B041804250432043F23
:10013300044C0459046604730480048D049A04A7D0
:1001430004B404C004CD04DA04E704F40501050E85
:10015300051B052805350542054F055C0569057630
:1001630005830590059C05A905B605C305D005DDE6
:1001730005EA05F706040611061E062B0638064592
:100183000652065F066C067806850692069F06AC45
:1001930006B906C606D306E006ED06FA07070714F6
:1001A3000721072E073B074807540761076E077BA4
:1001B3000788079507A207AF07BC07C907D607E358
:1001C30007F007FD080A081708240830083D084A05
:1001D300085708640871087E088B089808A508B2B8
:1001E30008BF08CC08D908E608F30900090C091967
:1001F300092609330940094D095A09670974098118
:10020300098E099B09A809B509C209CF09DC09E8C8
:1002130009F50A020A0F0A1C0A290A360A430A5078
:100223000A5D0A6A0A770A840A910A9E0AAB0AB827
:100233000AC40AD10ADE0AEB0AF80B050B120B1FDC
:100243000B2C0B390B460B530B600B6D0B7A0B8787
:100253000B940BA00BAD0BBA0BC70BD40BE10BEE3E
:100263000BFB0C080C150C220C2F0C3C0C490C56E8
:100273000C630C700C7C0C890C960CA30CB00CBD9D
:060283000CCA0CD70CE4CC
:10028900C0F9A4B0999282F880908883C6A186FFAC
:10029900790A786FD8FED9FA22900289E8540F9327
:1002A900F591E8C4540F93F592E9540F93F593220D
:1002B90090008975350212000385833685823512CF
:1002C900003988838982E493F9A3E493F812004EF4
:1002D90022900289E530540F93F591E530C4540F0B
:1002E90093F592E531540F93F59312037D745612E9
:1002F90003B774411203B7744C1203B77455120350
:10030900B774451203B774201203B7744F1203B7B9
:1003190074461203B774201203B774471203B774F3
:10032900521203B774451203B774451203B7744EDA
:100339001203B72212037D74561203B774411203D4
:10034900B7744C1203B774551203B774451203B747
:1003590074201203B7744F1203B774461203B774AB
:10036900201203B774521203B774451203B77444C9
:100379001203B72274011203A4792812038D748021
:100389001203A422120399120399120399D9F5228F
:100399007895000000000000D8F822F5D9C2DA00EB
:1003A90000D2D9000000000000C2D9020399F5D992
:1003B900D2DA0000D2D9000000000000C2D902033D
:1003C9009975F06484F9E5F075F00A84C445F0F88C
:1003D9002275B000D2A0D2B712029930A002C2B7DA
:1003E900D2B612029930A002C2B6D2B51202993021
:1003F900A002C2B5D2B412029930A002C2B4D2B3DB
:1004090012029930A002C2B3D2B212029930A002EC
:10041900C2B2D2B112029930A002C2B1D2B0120254
:100429009930A002C2B085B0E8AFB02275B000D251
:10043900A275F000D2B712029930A202C2B7D2B6A1
:1004490012029930A202C2B6D2B512029930A202A2
:10045900C2B5D2B412029930A202C2B4D2B3120206
:100469009930A202C2B3D2B212029930A202C2B228
:10047900D2B112029930A205C2B1120299D2B012B8
:10048900029930A202C2B085B0F8AEB022E420E8E9
:1004990006EE1202F38004EF12033D1203CA1202A0
:1004A900A22275817F75E800759500759E0075F823
:1004B90000759DFF759C00D2DBC2D912039975DACC
:1004C900FFC2D8740C1203A474381203A41203DAFD
:0B04D90012043512029912049680F202
:00000001FF
